:020000040800F2
:1000000000C0002081490008254100083141000856
:100010003941000841410008494100080000000042
:100020000000000000000000000000005141000836
:100030005D410008000000006941000875410008AA
:10004000C9490008C9490008C9490008C949000848
:10005000C9490008C9490008C9490008C949000838
:10006000C9490008C9490008C9490008C949000828
:10007000C9490008C9490008C9490008C949000818
:10008000C9490008C9490008C9490008C949000808
:10009000C9490008C9490008C9490008C9490008F8
:1000A000C9490008C9490008C9490008C9490008E8
:1000B000C9490008C9490008C9490008C9490008D8
:1000C000C9490008C9490008C9490008C9490008C8
:1000D000C94900088141000895410008C949000844
:1000E000C9490008C9490008C9490008C9490008A8
:1000F000C9490008C9490008C9490008C949000898
:10010000C9490008C9490008C9490008C949000887
:10011000C9490008C9490008A9410008BD410008B3
:10012000C9490008C9490008C9490008C949000867
:1001300000000000000000000000000000000000BF
:1001400000000000000000000000000000000000AF
:10015000000000000000000000000000000000009F
:10016000000000000000000000000000000000008F
:10017000000000000000000000000000000000007F
:10018000000000000000000000000000000000006F
:10019000000000000000000000000000000000005F
:1001A000000000000000000000000000000000004F
:1001B000000000000000000000000000000000003F
:1001C000000000000000000000000000000000002F
:1001D000000000000000000000000000000000001F
:0401E0005FF8E0F1F3
:1001E40010B5054C237833B9044B13B10448AFF36D
:1001F40000800123237010BD2C00002000000000AB
:10020400284A0008084B10B51BB108490848AFF349
:1002140000800848036803B910BD074B002BFBD0CE
:10022400BDE81040184700BF000000003000002067
:10023400284A00082C0000200000000080B500AF10
:10024400084A084B1B6843F010031360032000F0B6
:1002540043F9002000F008F803F030FF00231846AB
:1002640080BD00BF0020024080B582B000AF78603E
:10027400124B1A68124B1B7819464FF47A73B3FB6E
:10028400F1F3B2FBF3F3184600F05CF90346002BDC
:1002940001D001230EE07B680F2B0AD80022796875
:1002A4004FF0FF3000F024F9064A7B681360002306
:1002B40000E0012318460837BD4680BD2800002011
:1002C400040000200000002080B400AF054B1B7820
:1002D4001A46054B1B681344034A136000BFBD460E
:1002E40080BC7047040000204800002080B400AFA8
:1002F400024B1B681846BD4680BC7047480000206E
:1003040080B584B000AF7860FFF7F0FFB8607B6819
:10031400FB60FB68B3F1FF3F05D0094B1B781A461D
:10032400FB681344FB6000BFFFF7E0FF0246BB68B5
:10033400D21AFB689A42F7D300BF1037BD4680BD7E
:100344000400002080B485B000AF78607B6803F0BF
:100354000703FB600C4BDB68BB60BA684FF6FF0316
:100364001340BB60FB681A02BB68134343F0BF63CE
:1003740043F40033BB60044ABB68D36000BF143746
:10038400BD4680BC704700BF00ED00E080B400AF04
:10039400044BDB6803F4E0631B0A1846BD4680BCCB
:1003A400704700BF00ED00E080B483B000AF0346A7
:1003B400FB7197F90730002B0BDB084997F90730DD
:1003C4005B09FA7902F01F02012000FA02F241F8F7
:1003D400232000BF0C37BD4680BC704700E100E01D
:1003E40080B483B000AF03463960FB7197F90730DE
:1003F400002B0ADB0D4997F907303A68D2B2120193
:10040400D2B20B4483F800230AE00949FB7903F0D4
:100414000F03043B3A68D2B21201D2B20B441A76EB
:1004240000BF0C37BD4680BC704700BF00E100E050
:1004340000ED00E080B489B000AFF860B9607A6084
:10044400FB6803F00703FB61FB69C3F10703042B9B
:1004540028BF0423BB61FB690433062B02D9FB6963
:10046400033B00E000237B610122BB6902FA03F332
:100474005A1EBB681A407B699A4001217B6901FAC4
:1004840003F3591E7B680B40134318462437BD46BB
:1004940080BC704780B582B000AF78607B68013B58
:1004A400B3F1807F01D301230FE00A4A7B68013B4B
:1004B40053600F214FF0FF30FFF792FF054B0022EE
:1004C4009A60044B07221A60002318460837BD4679
:1004D40080BD00BF10E000E080B582B000AF78605E
:1004E4007868FFF72FFF00BF0837BD4680BD00BF07
:1004F40080B586B000AF0346B9607A60FB73002311
:100504007B61FFF743FF78617A68B9687869FFF720
:1005140091FF024697F90F3011461846FFF760FF26
:1005240000BF1837BD4680BD80B582B000AF03461A
:10053400FB7197F907301846FFF736FF00BF0837FD
:10054400BD4680BD80B582B000AF78607868FFF7A3
:10055400A1FF034618460837BD4680BD80B584B068
:1005640000AF78600023FB737B6893F82130022B83
:1005740005D07B6804229A630123FB73ECE07B685B
:100584001B687A681268126822F00E021A607B688F
:100594001B687A681268126822F001021A607B688C
:1005A4001B681A466F4B9A4263D96F4A7B681B6873
:1005B40019466E4B994259D07B681B6819466C4B9F
:1005C400994251D07B681B6819466A4B994248D0BE
:1005D4007B681B681946684B99423FD07B681B684F
:1005E4001946664B994236D07B681B681946644BA2
:1005F40099422DD07B681B6819465A4B994224D0E6
:100604007B681B6819465F4B99421CD07B681B684A
:1006140019465D4B994214D07B681B6819465B4BA5
:1006240099420BD07B681B681946594B994202D1F9
:100634004FF480531BE04FF4803318E04FF4807381
:1006440015E0102313E0012311E04FF080730EE056
:100654004FF480130BE04FF4803308E04FF48053E1
:1006640005E04FF4807302E0102300E0012353609F
:1006740062E0484A7B681B6819463C4B994259D052
:100684007B681B6819463A4B994251D07B681B68BA
:100694001946384B994248D07B681B681946364B3B
:1006A40099423FD07B681B681946344B994236D037
:1006B4007B681B681946324B99422DD07B681B68B6
:1006C4001946284B994224D07B681B6819462D4B48
:1006D40099421CD07B681B6819462B4B994214D055
:1006E4007B681B681946294B99420BD07B681B68B1
:1006F4001946274B994202D14FF480531BE04FF423
:10070400803318E04FF4807315E0102313E00123C5
:1007140011E04FF080730EE04FF480130BE04FF4C0
:10072400803308E04FF4805305E04FF4807302E017
:10073400102300E0012353607B68012283F8212009
:100744007B68002283F820207B685B6B002B03D03E
:100754007B685B6B78689847FB7B18461037BD460F
:1007640080BD00BF80000240000402400800024037
:100774001C00024030000240440002405800024085
:100784006C000240080402401C0402403004024091
:10079400440402400000024080B48BB000AF786093
:1007A400396000237B6200233B6233E101227B6AD0
:1007B40002FA03F3FB613B681A68FB691340BB61EF
:1007C400BA69FB699A4240F022813B685B68122B4C
:1007D40034D0122B0DD8022B2BD0022B04D8002B93
:1007E40031D0012B1CD048E0032B43D0112B1BD05C
:1007F40043E08F4A934226D08D4A934206D88D4ACD
:10080400934220D08C4A93421DD036E08B4A9342C7
:1008140019D08B4A934216D08A4A934213D02CE0C3
:100824003B68DB683B6228E03B68DB6804333B627F
:1008340023E03B68DB6808333B621EE03B68DB680F
:100844000C333B6219E03B689B68002B02D1042304
:100854003B6212E03B689B68012B05D108233B6295
:100864007B68FA691A6108E008233B627B68FA69CD
:100874005A6102E000233B6200BFBB69FF2B01D831
:100884007B6801E07B6804337B61BB69FF2B02D882
:100894007B6A9B0002E07B6A083B9B003B617B69AF
:1008A4001A680F213B6901FA03F3DB431A40396AE2
:1008B4003B6901FA03F31A437B691A603B685B687E
:1008C40003F08053002B00F0A2805F4A5E4B9B69CB
:1008D40043F0010393615C4B9B6903F00103BB602C
:1008E400BB685A4A7B6A9B08023352F82330FB6088
:1008F4007B6A03F003039B000F2202FA03F3DB433A
:10090400FA681340FB607B68514A93421FD07B68AE
:10091400504A934219D07B684F4A934213D07B6864
:100924004E4A93420DD07B684D4A934207D07B6870
:100934004C4A934201D105230AE0062308E004232C
:1009440006E0032304E0022302E0012300E0002385
:100954007A6A02F0030292009340FA681343FB6040
:100964003A497B6A9B080233FA6841F823203B68C2
:100974005B6803F48033002B06D03B493A4B1A687A
:10098400BB6913430B6006E03749374B1A68BB69F0
:10099400DB4313400B603B685B6803F40033002BBC
:1009A40006D03149304B5A68BB6913434B6006E0AB
:1009B4002D492D4B5A68BB69DB4313404B603B68A0
:1009C4005B6803F48013002B06D02749264B9A68F2
:1009D400BB6913438B6006E02349234B9A68BB69C8
:1009E400DB4313408B603B685B6803F40013002B0C
:1009F40006D01D491C4BDA68BB691343CB6006E083
:100A04001949194BDA68BB69DB431340CB607B6A35
:100A140001337B623B681A687B6A22FA03F3002B7A
:100A24007FF4C4AE00BF2C37BD4680BC704700BF06
:100A340000002110000011100000121000003110FD
:100A4400000032100000221000100240000001409B
:100A540000080140000C0140001001400014014056
:100A640000180140001C01400004014080B485B01E
:100A740000AF78600B467B807B689A687B88134064
:100A8400002B02D00123FB7301E00023FB73FB7BEB
:100A940018461437BD4680BC704700BF80B483B08D
:100AA40000AF78600B467B8013467B707B78002B0D
:100AB40003D07A887B681A6103E07B881A047B6818
:100AC4001A6100BF0C37BD4680BC704780B483B048
:100AD40000AF78600B467B807B68DA687B881340C4
:100AE400002B03D07A887B685A6102E07A887B689D
:100AF4001A6100BF0C37BD4680BC704790B585B005
:100B040000AF78607B68002B01D101230FE17B6883
:100B140093F83D30DBB2002B06D17B68002283F8CA
:100B24003C20786802F0B0FF7B68242283F83D20E3
:100B34007B681B687A681268126822F001021A60E6
:100B440000F0E4FFF8607B685B687B4A934207D857
:100B5400FB687A4A934294BF01230023DBB206E088
:100B6400FB68774A934294BF01230023DBB2002B36
:100B740001D00123DBE0FB68724AA2FB03239B0C38
:100B8400BB607B681B687A681268526822F03F0178
:100B9400BA680A435A607B681A687B681B681B6AD8
:100BA40023F03F017B685B686348834202D8BB68DB
:100BB400013309E0BB684FF4967000FB03F362480D
:100BC400A0FB03039B0901330B4313627B68186882
:100BD4007B681B68DB6923F44F4222F0FF027B68C9
:100BE4005B6855498B420DD8FB68591E7B685B686E
:100BF4005B00B1FBF3F30133C3F30B03042B38BFE6
:100C040004234FE07B689B68002B11D1FB685C1EBA
:100C14007B6859680B465B000B44B4FBF3F3013368
:100C2400C3F30B03002B0CBF01230023DBB212E040
:100C3400FB685C1E7B6859680B469B000B4499005B
:100C44000B44B4FBF3F30133C3F30B03002B0CBFCE
:100C540001230023DBB2002B01D0012322E07B68B7
:100C64009B68002B0ED1FB685C1E7B6859680B46A1
:100C74005B000B44B4FBF3F30133C3F30B0343F402
:100C840000430FE0FB685C1E7B6859680B469B00C1
:100C94000B4499000B44B4FBF3F30133C3F30B038C
:100CA40043F440431343C3617B681B687A6812684A
:100CB400126822F0C0017A68D0697A68126A024325
:100CC4000A431A607B681A687B681B689B6823F474
:100CD400034323F0FF03796808697968C96801430D
:100CE4000B4393607B681B687A681268D26822F0B1
:100CF400FF017A6850697A68926902430A43DA60AC
:100D04007B681B687A681268126842F001021A60F4
:100D14007B6800221A647B68202283F83D207B686C
:100D240000221A637B68002283F83E2000231846C1
:100D34001437BD4690BD00BFA08601007F841E000D
:100D4400FF083D0083DE1B43D34D621080B588B09D
:100D540002AFF860084611461A4603467B810B46EB
:100D64003B811346FB80FFF7C1FA7861FB6893F877
:100D74003D30DBB2202B40F0D9807B6900931923EE
:100D840001226D49F86800F063F90346002B01D095
:100D94000223CCE0FB6893F83C30012B01D1022301
:100DA400C5E0FB68012283F83C20FB681B681B68D4
:100DB40003F00103002B07D1FB681B68FA68126873
:100DC400126842F001021A60FB681B68FA68126834
:100DD400126822F400621A60FB68212283F83D2025
:100DE400FB68402283F83E20FB6800221A64FB68FB
:100DF4003A6A5A62FB68BA8C5A85FB685B8D9AB270
:100E0400FB681A85FB684D4ADA62F8883A89798961
:100E14007B690193BB6A00930346F86800F090F87D
:100E24000346002B52D0012381E07A69B96AF8683D
:100E340000F0E4F90346002B0DD0FB681B6C042B77
:100E440007D1FB681B68FA681268126842F40072E2
:100E54001A6001236BE0FB681B68FA68526A127817
:100E64001A61FB685B6A5A1CFB685A62FB681B8D3B
:100E7400013B9AB2FB681A85FB685B8D9BB2013B10
:100E84009AB2FB685A85FB681B685B6903F004032C
:100E9400002B1BD0FB681B8D002B17D0FB681B6835
:100EA400FA68526A12781A61FB685B6A5A1CFB681A
:100EB4005A62FB681B8D013B9AB2FB681A85FB687A
:100EC4005B8D9BB2013B9AB2FB685A85FB681B8D14
:100ED400002BAAD17A69B96AF86800F0D1F90346FF
:100EE400002B0DD0FB681B6C042B07D1FB681B681F
:100EF400FA681268126842F400721A60012316E05C
:100F0400FB681B68FA681268126842F400721A607F
:100F1400FB68202283F83D20FB68002283F83E20F2
:100F2400FB68002283F83C20002300E002231846DB
:100F34001837BD4680BD00BF020010000000FFFF4F
:100F440080B588B002AFF860084611461A460346D9
:100F54007B810B463B811346FB80FB681B68FA6868
:100F64001268126842F480721A607B6A00933B6ACA
:100F740000224FF00111F86800F06AF80346002BD4
:100F840001D001235EE0FB681B687A89D2B202F0CB
:100F9400FE021A617B6A3A6A2C49F86800F0B0F8DC
:100FA4000346002B01D001234CE000237B61FB6846
:100FB4001B685B697B61FB681B689B697B617B6960
:100FC4007A6A396AF86800F019F90346002B0DD0E3
:100FD400FB681B6C042B07D1FB681B68FA6812685A
:100FE400126842F400721A6001232BE0FB88012B83
:100FF40005D1FB681B683A89D2B21A6121E0FB680B
:101004001B683A89120A92B2D2B21A617A6A396AB0
:10101400F86800F0F3F80346002B0DD0FB681B6C56
:10102400042B07D1FB681B68FA681268126842F443
:1010340000721A60012305E0FB681B683A89D2B28A
:101044001A61002318461837BD4680BD020001000E
:1010540080B584B000AFF860B9603B601346FB71A3
:1010640025E03B68B3F1FF3F21D0FFF73FF902468B
:10107400BB69D21A3B689A4202D83B68002B16D14E
:10108400FB6800221A63FB68202283F83D20FB687A
:10109400002283F83E20FB681B6C43F02002FB68AF
:1010A4001A64FB68002283F83C20012323E0BB6818
:1010B4001B0CDBB2012B0DD1FB681B685B69DA43A7
:1010C400BB6813409BB2002B0CBF01230023DBB28F
:1010D4001A460CE0FB681B689B69DA43BB68134043
:1010E4009BB2002B0CBF01230023DBB21A46FB7911
:1010F4009A42B6D0002318461037BD4680BD00BFC3
:1011040080B584B000AFF860B9607A603B6050E0AD
:10111400FB681B685B6903F48063002B23D0FB68C6
:101124001B68FA681268126842F400721A60FB685D
:101134001B686FF480625A61FB6800221A63FB68C3
:10114400202283F83D20FB68002283F83E20FB68C0
:101154001B6C43F00402FB681A64FB68002283F8EA
:101164003C20012346E07B68B3F1FF3F21D0FFF729
:10117400BDF802463B68D21A7B689A4202D87B6863
:10118400002B16D1FB6800221A63FB68202283F827
:101194003D20FB68002283F83E20FB681B6C43F073
:1011A4002002FB681A64FB68002283F83C200123B8
:1011B40020E0BB681B0CDBB2012B0CD1FB681B6865
:1011C4005B69DA43BB6813409BB2002B14BF012355
:1011D4000023DBB20BE0FB681B689B69DA43BB6846
:1011E40013409BB2002B14BF01230023DBB2002B5E
:1011F4008ED1002318461037BD4680BD80B584B01B
:1012040000AFF860B9607A602DE0F86800F07AF811
:101214000346002B01D001232DE0BB68B3F1FF3F4F
:1012240021D0FFF763F802467B68D21ABB689A4262
:1012340002D8BB68002B16D1FB6800221A63FB6836
:10124400202283F83D20FB68002283F83E20FB68BF
:101254001B6C43F02002FB681A64FB68002283F8CD
:101264003C20012307E0FB681B685B6903F08003F3
:10127400002BCAD0002318461037BD4680BD00BFDE
:1012840080B584B000AFF860B9607A602DE0F8688A
:1012940000F038F80346002B01D001232DE0BB6891
:1012A400B3F1FF3F21D0FFF721F802467B68D21A41
:1012B400BB689A4202D8BB68002B16D1FB68002297
:1012C4001A63FB68202283F83D20FB68002283F820
:1012D4003E20FB681B6C43F02002FB681A64FB6829
:1012E400002283F83C20012307E0FB681B685B694C
:1012F40003F00403002BCAD0002318461037BD4660
:1013040080BD00BF80B483B000AF78607B681B6889
:101314005B6903F48063002B1BD07B681B686FF44C
:1013240080625A617B6800221A637B68202283F8FA
:101334003D207B68002283F83E207B681B6C43F0D1
:1013440004027B681A647B68002283F83C20012332
:1013540000E0002318460C37BD4680BC704700BF30
:1013640080B586B000AF78607B68002B01D1012383
:101374006AE27B681B6803F00103002B00F086809F
:10138400914B5B6803F00C03042B0BD08E4B5B6812
:1013940003F00C03082B11D18B4B5B6803F48033EF
:1013A400002B0BD0884B1B6803F40033002B6CD04C
:1013B4007B685B68002B68D1012345E27B685B682E
:1013C400B3F5803F06D1804A7F4B1B6843F48033DA
:1013D40013602EE07B685B68002B0CD17A4A7A4B51
:1013E4001B6823F480331360774A774B1B6823F41C
:1013F400802313601DE07B685B68B3F5A02F0CD1DC
:10140400714A714B1B6843F4802313606E4A6E4B20
:101414001B6843F4803313600BE06B4A6A4B1B6810
:1014240023F480331360684A674B1B6823F48023DA
:1014340013607B685B68002B13D0FEF757FF38619D
:1014440008E0FEF753FF02463B69D31A642B01D927
:101454000323F9E15C4B1B6803F40033002BF0D049
:1014640014E0FEF743FF386108E0FEF73FFF024651
:101474003B69D31A642B01D90323E5E1524B1B6862
:1014840003F40033002BF0D100E000BF7B681B683D
:1014940003F00203002B63D04B4B5B6803F00C0397
:1014A400002B0BD0484B5B6803F00C03082B1CD1BA
:1014B400454B5B6803F48033002B16D1424B1B6809
:1014C40003F00203002B05D07B681B69012B01D0BC
:1014D4000123B9E13C493C4B1B6823F0F8027B68CB
:1014E4005B69DB0013430B603AE07B681B69002BEC
:1014F40020D0364B01221A60FEF7F8FE386108E06E
:10150400FEF7F4FE02463B69D31A022B01D90323EA
:101514009AE12D4B1B6803F00203002BF0D02A49FB
:10152400294B1B6823F0F8027B685B69DB001343DB
:101534000B6015E0254B00221A60FEF7D7FE3861D8
:1015440008E0FEF7D3FE02463B69D31A022B01D909
:10155400032379E11C4B1B6803F00203002BF0D139
:101564007B681B6803F00803002B39D07B689B69F8
:10157400002B19D0164B01221A60FEF7B7FE386112
:1015840008E0FEF7B3FE02463B69D31A022B01D9E9
:10159400032359E10C4B5B6A03F00203002BF0D0E8
:1015A400012000F0DBFA1BE0094B00221A60FEF771
:1015B4009DFE38610EE0FEF799FE02463B69D31AA0
:1015C400022B07D903233FE10010024000004242EE
:1015D400800442429E4B5B6A03F00203002BEAD173
:1015E4007B681B6803F00403002B00F0A680002333
:1015F400FB75974BDB6903F08053002B0DD1944AA4
:10160400934BDB6943F08053D361914BDB6903F067
:101614008053BB60BB680123FB758E4B1B6803F4CE
:101624008073002B18D18B4A8A4B1B6843F4807358
:101634001360FEF75BFE386108E0FEF757FE0246D2
:101644003B69D31A642B01D90323FDE0814B1B684A
:1016540003F48073002BF0D07B68DB68012B06D188
:101664007B4A7B4B1B6A43F0010313622DE07B68CA
:10167400DB68002B0CD1764A754B1B6A23F00103FF
:101684001362734A724B1B6A23F0040313621CE057
:101694007B68DB68052B0CD16D4A6D4B1B6A43F0EC
:1016A400040313626A4A6A4B1B6A43F00103136220
:1016B4000BE0674A664B1B6A23F001031362644A1A
:1016C400634B1B6A23F0040313627B68DB68002B03
:1016D40015D0FEF70BFE38610AE0FEF707FE02465E
:1016E4003B69D31A41F28832934201D90323ABE018
:1016F400574B1B6A03F00203002BEED014E0FEF7F5
:10170400F5FD38610AE0FEF7F1FD02463B69D31AA4
:1017140041F28832934201D9032395E04C4B1B6A72
:1017240003F00203002BEED1FB7D012B05D1484AC7
:10173400474BDB6923F08053D3617B68DB69002B63
:1017440000F08180424B5B6803F00C03082B61D0EE
:101754007B68DB69022B46D13F4B00221A60FEF7FF
:10176400C5FD386108E0FEF7C1FD02463B69D31AA6
:10177400022B01D9032367E0354B1B6803F0007388
:10178400002BF0D17B681B6AB3F5803F08D1304948
:101794002F4B5B6823F400327B689B6813434B60D8
:1017A4002B482B4B5B6823F474127B68196A7B68A3
:1017B4005B6A0B4313434360274B01221A60FEF715
:1017C40095FD386108E0FEF791FD02463B69D31AA6
:1017D400022B01D9032337E01D4B1B6803F0007370
:1017E400002BF0D02FE01C4B00221A60FEF77EFD88
:1017F400386108E0FEF77AFD02463B69D31A022BF2
:1018040001D9032320E0124B1B6803F00073002B63
:10181400F0D118E07B68DB69012B01D1012313E0CF
:101824000B4B5B68FB60FB6803F480327B681B6ACC
:101834009A4206D1FB6803F470127B685B6A9A4291
:1018440001D0012300E0002318461837BD4680BDAF
:1018540000100240007000406000424280B584B035
:1018640000AF786039607B68002B01D10123D0E0A0
:101874006A4B1B6803F007023B689A4210D267491F
:10188400664B1B6823F007023B6813430B60634BF2
:101894001B6803F007023B689A4201D00123B8E0B9
:1018A4007B681B6803F00203002B20D07B681B6855
:1018B40003F00403002B05D0594A594B5B6843F4E9
:1018C400E06353607B681B6803F00803002B05D0BA
:1018D400534A534B5B6843F4605353605049504B35
:1018E4005B6823F0F0027B689B6813434B607B6862
:1018F4001B6803F00103002B40D07B685B68012B5D
:1019040007D1474B1B6803F40033002B15D1012387
:101914007FE07B685B68022B07D1414B1B6803F0B7
:101924000073002B09D1012373E03D4B1B6803F0C6
:101934000203002B01D101236BE03949384B5B686A
:1019440023F003027B685B6813434B60FEF7CEFC15
:10195400F8600AE0FEF7CAFC0246FB68D31A41F2BB
:101964008832934201D9032353E02D4B5B6803F083
:101974000C027B685B689B009A42EBD1274B1B6887
:1019840003F007023B689A4210D92449234B1B6891
:1019940023F007023B6813430B60204B1B6803F0E2
:1019A40007023B689A4201D0012332E07B681B683E
:1019B40003F00403002B08D01949194B5B6823F486
:1019C400E0627B68DB6813434B607B681B6803F051
:1019D4000803002B09D01249114B5B6823F46052B1
:1019E4007B681B69DB0013434B6000F021F8014660
:1019F4000B4B5B6803F0F0031B090A4AD35C21FA22
:101A040003F3094A1360094B1B681846FEF72CFCC4
:101A1400002318461037BD4680BD00BF0020024099
:101A2400001002407C520008280000200000002022
:101A340090B48AB000AF2B4B3C1D186859689A6863
:101A4400DB680FC4284A3B4612881A800023FB61D6
:101A54000023BB6100237B6200237B6100233B6284
:101A6400224B5B68FB61FB6903F00C03042B02D07F
:101A7400082B03D02DE01E4B3B622DE0FB699B0C31
:101A840003F00F0307F12802134413F8243C7B618D
:101A9400FB6903F48033002B13D0144B5B6803F40D
:101AA40000335B0C07F12802134413F8283CBB6194
:101AB4007B690F4A02FB03F2BB69B2FBF3F37B625F
:101AC40004E07B690B4A02FB03F37B627B6A3B62A3
:101AD40002E0074B3B6200BF3B6A18462837BD460D
:101AE40090BC7047404A0008504A00080010024069
:101AF40000127A0000093D0080B400AF024B1B685D
:101B04001846BD4680BC70472800002080B500AF51
:101B1400FFF7F2FF0146054B5B6803F4E0631B0A21
:101B2400034AD35C21FA03F3184680BD0010024037
:101B34008C52000880B500AFFFF7DEFF0146054B6D
:101B44005B6803F46053DB0A034AD35C21FA03F3B2
:101B5400184680BD001002408C52000880B485B045
:101B640000AF78600A4B1B680A4AA2FB03235B0A96
:101B74007A6802FB03F3FB6000BFFB685A1EFA603D
:101B8400002BF9D100BF1437BD4680BC704700BF9D
:101B940028000020D34D621080B582B000AF786079
:101BA4007B68002B01D101231DE07B6893F83D3055
:101BB400DBB2002B06D17B68002283F83C207868D6
:101BC40002F060FD7B68022283F83D207B681A687E
:101BD4007B6804331946104600F054FB7B680122ED
:101BE40083F83D20002318460837BD4680BD00BF5A
:101BF40080B485B000AF78607B681B687A6812682F
:101C0400D26842F00102DA607B681B689B6803F0CB
:101C14000703FB60FB68062B07D07B681B687A68A8
:101C24001268126842F001021A6000231846143741
:101C3400BD4680BC704700BF80B582B000AF7860FD
:101C44007B68002B01D101231DE07B6893F83D30B4
:101C5400DBB2002B06D17B68002283F83C20786835
:101C640002F052FD7B68022283F83D207B681A68EB
:101C74007B6804331946104600F004FB7B6801229C
:101C840083F83D20002318460837BD4680BD00BFB9
:101C940080B584B000AF786039607B681B6801222E
:101CA4003968184600F014FD7B681B68154A934296
:101CB40004D07B681B68144A934201D1012300E0DD
:101CC4000023002B07D07B681B687A681268526C6B
:101CD40042F400425A647B681B689B6803F0070364
:101CE400FB60FB68062B07D07B681B687A68126868
:101CF400126842F001021A60002318461037BD46EC
:101D040080BD00BF002C01400034014080B586B086
:101D140000AF786039607B68002B01D101237FE03C
:101D24007B6893F83D30DBB2002B06D17B68002240
:101D340083F83C20786802F039FC7B68022283F83F
:101D44003D207B681A687B681B689B6823F480438A
:101D540023F0070393607B681A687B680433194691
:101D6400104600F08FFA7B681B689B687B617B6878
:101D74001B689B693B617B681B681B6AFB603B6853
:101D84001B687A6913437B613B6923F4407323F036
:101D940003033B613B689A683B689B691B021343DE
:101DA4003A6913433B613B6923F4406323F00C031A
:101DB4003B613B6923F4704323F0F0033B613B68D0
:101DC400DA683B68DB691B0213433A6913433B61DE
:101DD4003B681B691A013B681B6A1B0313433A697E
:101DE40013433B61FB6823F02203FB603B685A68A2
:101DF4003B685B691B011343FA681343FB607B6810
:101E04001B687A699A607B681B683A699A617B6887
:101E14001B68FA681A627B68012283F83D2000235C
:101E240018461837BD4680BD80B582B000AF7860D3
:101E340039603B68002B02D0042B08D00FE07B688C
:101E44001B6801220021184600F042FC16E07B6862
:101E54001B6801220421184600F03AFC0EE07B685E
:101E64001B6801220021184600F032FC7B681B68C5
:101E740001220421184600F02BFC00BF7B681B687C
:101E84007A681268126842F001021A600023184648
:101E94000837BD4680BD00BF80B582B000AF786012
:101EA4007B681B681B6903F00203002B22D07B684C
:101EB4001B68DB6803F00203002B1BD07B681B68E4
:101EC4006FF002021A617B6801221A777B681B6833
:101ED4009B6903F00303002B03D0786800F0B4F986
:101EE40005E0786800F0A6F9786800F0B7F97B6837
:101EF40000221A777B681B681B6903F00403002B1C
:101F040022D07B681B68DB6803F00403002B1BD022
:101F14007B681B686FF004021A617B6802221A77DF
:101F24007B681B689B6903F44073002B03D07868BB
:101F340000F08AF905E0786800F07CF9786800F030
:101F44008DF97B6800221A777B681B681B6903F094
:101F54000803002B22D07B681B68DB6803F00803AE
:101F6400002B1BD07B681B686FF008021A617B682A
:101F740004221A777B681B68DB6903F00303002BD8
:101F840003D0786800F060F905E0786800F052F951
:101F9400786800F063F97B6800221A777B681B6815
:101FA4001B6903F01003002B22D07B681B68DB68DD
:101FB40003F01003002B1BD07B681B686FF010022A
:101FC4001A617B6808221A777B681B68DB6903F453
:101FD4004073002B03D0786800F036F905E0786888
:101FE40000F028F9786800F039F97B6800221A7744
:101FF4007B681B681B6903F00103002B0ED07B6810
:102004001B68DB6803F00103002B07D07B681B68A7
:102014006FF001021A61786801F05EFF7B681B684B
:102024001B6903F08003002B0ED07B681B68DB6800
:1020340003F08003002B07D07B681B686FF08002DD
:102044001A61786800F008FC7B681B681B6903F060
:102054004003002B0ED07B681B68DB6803F0400351
:10206400002B07D07B681B686FF040021A61786808
:1020740000F0FEF87B681B681B6903F02003002B4B
:102084000ED07B681B68DB6803F02003002B07D0AD
:102094007B681B686FF020021A61786800F0D2FB3D
:1020A40000BF0837BD4680BD80B584B000AFF8607E
:1020B400B9607A60FB6893F83C30012B01D10223AC
:1020C400B4E0FB68012283F83C20FB68022283F819
:1020D4003D207B680C2B00F29F8001A252F823F074
:1020E400192100081D2200081D2200081D220008D5
:1020F400592100081D2200081D2200081D22000885
:102104009B2100081D2200081D2200081D22000832
:10211400DB210008FB681B68B968184600F02CF93D
:10212400FB681B68FA681268926942F008029A61B7
:10213400FB681B68FA681268926922F004029A61CB
:10214400FB681B68FA6812689169BA6812690A43E5
:102154009A6162E0FB681B68B968184600F07CF974
:10216400FB681B68FA681268926942F400629A611B
:10217400FB681B68FA681268926922F480629A61AB
:10218400FB681B68FA6812689169BA6812691202DE
:102194000A439A6141E0FB681B68B968184600F07D
:1021A400CFF9FB681B68FA681268D26942F008022A
:1021B400DA61FB681B68FA681268D26922F00402CB
:1021C400DA61FB681B68FA681268D169BA68126937
:1021D4000A43DA6121E0FB681B68B968184600F01D
:1021E40023FAFB681B68FA681268D26942F4006239
:1021F400DA61FB681B68FA681268D26922F48062AB
:10220400DA61FB681B68FA681268D169BA681269F6
:1022140012020A43DA6100E000BFFB68012283F87E
:102224003D20FB68002283F83C2000231846103729
:10223400BD4680BD80B483B000AF786000BF0C376A
:10224400BD4680BC704700BF80B483B000AF7860E7
:1022540000BF0C37BD4680BC704700BF80B483B05C
:1022640000AF786000BF0C37BD4680BC704700BF2C
:1022740080B483B000AF786000BF0C37BD4680BC2B
:10228400704700BF80B485B000AF786039607B6868
:102294001B68FB607B68334A934213D07B68324AE5
:1022A40093420FD07B68B3F1804F0BD07B682F4AE9
:1022B400934207D07B682E4A934203D07B682D4A11
:1022C400934208D1FB6823F07003FB603B685B68B2
:1022D400FA681343FB607B68224A934213D07B68FD
:1022E400214A93420FD07B68B3F1804F0BD07B68B7
:1022F4001E4A934207D07B681D4A934203D07B68F1
:102304001C4A934208D1FB6823F44073FB603B688A
:10231400DB68FA681343FB60FB6823F080023B68C8
:102324005B691343FB607B68FA681A603B689A68D0
:102334007B68DA623B681A687B689A627B68094A40
:10234400934203D07B68084A934203D13B681A69DD
:102354007B681A637B6801225A6100BF1437BD464B
:1023640080BC7047002C0140003401400004004050
:1023740000080040000C004080B487B000AF7860D3
:1023840039607B681B6A23F001027B681A627B68F0
:102394001B6A7B617B685B683B617B689B69FB6054
:1023A400FB6823F07003FB60FB6823F00303FB600E
:1023B4003B681B68FA681343FB607B6923F00203E4
:1023C4007B613B689B687A6913437B617B68204A25
:1023D400934203D07B681F4A93420CD17B6923F05C
:1023E40008037B613B68DB687A6913437B617B6923
:1023F40023F004037B617B68154A934203D07B6816
:10240400144A934211D13B6923F480733B613B69C5
:1024140023F400733B613B685B693A6913433B6196
:102424003B689B693A6913433B617B683A695A602C
:102434007B68FA689A613B685A687B685A637B6870
:102444007A691A6200BF1C37BD4680BC704700BF62
:10245400002C01400034014080B487B000AF7860A4
:1024640039607B681B6A23F010027B681A627B6800
:102474001B6A7B617B685B683B617B689B69FB6073
:10248400FB6823F4E043FB60FB6823F44073FB60C8
:102494003B681B681B02FA681343FB607B6923F0EB
:1024A40020037B613B689B681B017A6913437B6152
:1024B4007B68214A934203D07B68204A93420DD122
:1024C4007B6923F080037B613B68DB681B017A69CD
:1024D40013437B617B6923F040037B617B68164A6D
:1024E400934203D07B68154A934213D13B6923F48A
:1024F40080633B613B6923F400633B613B685B6938
:102504009B003A6913433B613B689B699B003A69B2
:1025140013433B617B683A695A607B68FA689A6145
:102524003B685A687B689A637B687A691A6200BF61
:102534001C37BD4680BC7047002C0140003401406C
:1025440080B487B000AF786039607B681B6A23F47D
:1025540080727B681A627B681B6A7B617B685B683C
:102564003B617B68DB69FB60FB6823F07003FB6005
:10257400FB6823F00303FB603B681B68FA681343A2
:10258400FB607B6923F400737B613B689B681B02DF
:102594007A6913437B617B68214A934203D07B6849
:1025A400204A93420DD17B6923F400637B613B682D
:1025B400DB681B027A6913437B617B6923F48063C4
:1025C4007B617B68164A934203D07B68154A934229
:1025D40013D13B6923F480533B613B6923F40053DB
:1025E4003B613B685B691B013A6913433B613B6890
:1025F4009B691B013A6913433B617B683A695A60E2
:102604007B68FA68DA613B685A687B68DA637B68DE
:102614007A691A6200BF1C37BD4680BC704700BF90
:10262400002C01400034014080B487B000AF7860D2
:1026340039607B681B6A23F480527B681A627B686A
:102644001B6A3B617B685B687B617B68DB69FB6061
:10265400FB6823F4E043FB60FB6823F44073FB60F6
:102664003B681B681B02FA681343FB603B6923F455
:1026740000533B613B689B681B033A6913433B610E
:102684007B68114A934203D07B68104A934209D174
:102694007B6923F480437B613B685B699B017A69B6
:1026A40013437B617B687A695A607B68FA68DA61F4
:1026B4003B685A687B681A647B683A691A6200BF8F
:1026C4001C37BD4680BC7047002C014000340140DB
:1026D40080B487B000AFF860B9607A60BB6803F07B
:1026E4001F03012202FA03F37B61FB681A6A7B6908
:1026F400DB431A40FB681A62FB681A6ABB6803F082
:102704001F03796801FA03F31A43FB681A6200BFD6
:102714001C37BD4680BC704780B485B000AF78607C
:1027240039607B6893F83C30012B01D1022332E0FD
:102734007B68012283F83C207B68022283F83D20D9
:102744007B681B685B68FB607B681B689B68BB607D
:10275400FB6823F07003FB603B681B68FA68134353
:10276400FB60BB6823F08003BB603B685B68BA68AE
:102774001343BB607B681B68FA685A607B681B68FC
:10278400BA689A607B68012283F83D207B68002246
:1027940083F83C20002318461437BD4680BC70479C
:1027A40080B485B000AF786039600023FB607B683B
:1027B40093F83C30012B01D102233DE07B680122D8
:1027C40083F83C20FB6823F0FF023B68DB6813437B
:1027D400FB60FB6823F440723B689B681343FB6017
:1027E400FB6823F480623B685B681343FB60FB680F
:1027F40023F400623B681B681343FB60FB6823F40B
:1028040080523B681B691343FB60FB6823F400524E
:102814003B685B691343FB60FB6823F480423B68BD
:10282400DB691343FB607B681B68FA685A647B6846
:10283400002283F83C20002318461437BD4680BC90
:10284400704700BF80B483B000AF786000BF0C371E
:10285400BD4680BC704700BF80B483B000AF7860D1
:1028640000BF0C37BD4680BC704700BF80B582B046
:1028740000AF78607B68002B01D101233FE07B68C7
:1028840093F83930DBB2002B06D17B68002283F841
:102894003820786801F0DEFF7B68242283F8392031
:1028A4007B681B687A681268D26822F40052DA6086
:1028B400786800F08FFB7B681B687A68126812697D
:1028C40022F490421A617B681B687A681268526924
:1028D40022F02A025A617B681B687A681268D268FF
:1028E40042F40052DA607B680022DA637B682022BB
:1028F40083F839207B68202283F83A200023184685
:102904000837BD4680BD00BF80B588B002AFF8600F
:10291400B9603B601346FB8000237B61FB6893F83E
:102924003930DBB2202B40F08280BB68002B02D010
:10293400FB88002B01D101237AE0FB6893F838303F
:10294400012B01D1022373E0FB68012283F83820B4
:10295400FB680022DA63FB68212283F83920FDF743
:10296400C5FC7861FB68FA889A84FB68FA88DA8483
:1029740041E0FB68DB8C9BB2013B9AB2FB68DA84D2
:10298400FB689B68B3F5805F21D13B6800937B694A
:1029940000228021F86800F0B3F90346002B01D02F
:1029A400032345E0BB683B61FB681B683A691288F6
:1029B400C2F308025A60FB681B69002B03D1BB6891
:1029C4000233BB6017E0BB680133BB6013E03B68B4
:1029D40000937B6900228021F86800F091F9034696
:1029E400002B01D0032323E0FB681A68BB68591C41
:1029F400B9601B785360FB68DB8C9BB2002BB8D1A9
:102A04003B6800937B6900224021F86800F078F964
:102A14000346002B01D003230AE0FB68202283F83D
:102A24003920FB68002283F83820002300E00223C9
:102A340018461837BD4680BD80B485B000AFF86035
:102A4400B9601346FB80FB6893F83A30DBB2202B65
:102A540040D1BB68002B02D0FB88002B01D101239D
:102A640039E0FB6893F83830012B01D1022332E0BE
:102A7400FB68012283F83820FB68BA689A62FB6815
:102A8400FA889A85FB68FA88DA85FB680022DA639B
:102A9400FB68222283F83A20FB68002283F838205E
:102AA400FB681B68FA681268D26842F48072DA60C4
:102AB400FB681B68FA681268526942F001025A61A5
:102AC400FB681B68FA681268D26842F02002DA6078
:102AD400002300E0022318461437BD4680BC70472B
:102AE40080B588B000AF78607B681B681B68FB61A9
:102AF4007B681B68DB68BB617B681B685B697B6107
:102B040000233B610023FB60FB6903F00F033B617F
:102B14003B69002B0DD1FB6903F02003002B08D087
:102B2400BB6903F02003002B03D0786800F0D0F9D0
:102B3400CCE03B69002B00F0AB807B6903F0010320
:102B4400002B05D1BB6903F49073002B00F0A08027
:102B5400FB6903F00103002B0AD0BB6903F4807303
:102B6400002B05D07B68DB6B43F001027B68DA63E2
:102B7400FB6903F00403002B0AD07B6903F0010313
:102B8400002B05D07B68DB6B43F002027B68DA63C1
:102B9400FB6903F00203002B0AD07B6903F00103F5
:102BA400002B05D07B68DB6B43F004027B68DA639F
:102BB400FB6903F00803002B0AD07B6903F00103CF
:102BC400002B05D07B68DB6B43F008027B68DA637B
:102BD4007B68DB6B002B78D0FB6903F02003002BB0
:102BE40007D0BB6903F02003002B02D0786800F003
:102BF4006FF97B681B685B6903F04003002B14BF0B
:102C040001230023DBB2FB607B68DB6B03F008036A
:102C1400002B02D1FB68002B31D0786800F0BAF8A1
:102C24007B681B685B6903F04003002B23D07B683F
:102C34001B687A681268526922F040025A617B6804
:102C44005B6B002B13D07B685B6B224A5A637B68F7
:102C54005B6B1846FDF782FC0346002B16D07B689D
:102C64005B6B5B6B7A68526B104698470EE0786832
:102C740000F03CF80AE0786800F038F806E078687C
:102C840000F034F87B680022DA631EE000BF1CE029
:102C9400FB6903F08003002B08D0BB6903F08003B9
:102CA400002B03D0786800F0A7F80FE0FB6903F06D
:102CB4004003002B0AD0BB6903F04003002B05D06E
:102CC400786800F0EDF800BF00E000BF2037BD4693
:102CD40080BD00BFD52D000880B483B000AF7860FC
:102CE40000BF0C37BD4680BC704700BF80B483B0C2
:102CF40000AF786000BF0C37BD4680BC704700BF92
:102D040080B584B000AFF860B9603B601346FB71D6
:102D14002CE0BB69B3F1FF3F28D0BB69002B07D07F
:102D2400FDF7E4FA02463B68D21ABB699A421DD900
:102D3400FB681B68FA681268D26822F4D072DA6001
:102D4400FB681B68FA681268526922F001025A6132
:102D5400FB68202283F83920FB68202283F83A207C
:102D6400FB68002283F8382003230FE0FB681B680C
:102D74001A68BB681A40BB689A420CBF012300233F
:102D8400DBB21A46FB799A42C3D0002318461037A7
:102D9400BD4680BD80B483B000AF78607B681B689B
:102DA4007A681268D26822F49072DA607B681B68D1
:102DB4007A681268526922F001025A617B68202203
:102DC40083F83A2000BF0C37BD4680BC704700BF73
:102DD40080B584B000AF78607B685B6AFB60FB6899
:102DE4000022DA85FB680022DA84F868FFF77EFFA8
:102DF40000BF1037BD4680BD80B485B000AF786099
:102E04007B6893F83930DBB2212B43D17B689B6814
:102E1400B3F5805F19D17B681B6AFB607B681B6814
:102E2400FA681288C2F308025A607B681B69002B97
:102E340005D17B681B6A9A1C7B681A620EE07B686A
:102E44001B6A5A1C7B681A6208E07B681A687B68F4
:102E54001B6A581C796808621B7853607B68DB8C9A
:102E64009BB2013B9BB27A681946D184002B0FD1E7
:102E74007B681B687A681268D26822F08002DA6084
:102E84007B681B687A681268D26842F04002DA6094
:102E9400002300E0022318461437BD4680BC704767
:102EA40080B582B000AF78607B681B687A6812686E
:102EB400D26822F04002DA607B68202283F839204D
:102EC4007868FFF709FF002318460837BD4680BD20
:102ED40080B584B000AF78607B6893F83A30DBB299
:102EE400222B71D17B689B68B3F5805F23D17B680B
:102EF4009B6AFB607B681B69002B0ED17B681B6897
:102F04005B689BB2C3F308039AB2FB681A807B68C0
:102F14009B6A9A1C7B689A6229E07B681B685B68E1
:102F24009BB2DBB29AB2FB681A807B689B6A5A1C1C
:102F34007B689A621BE07B681B69002B0AD17B6863
:102F44009B6A591C7A6891627A6812685268D2B294
:102F54001A700CE07B689B6A591C7A6891627A68E3
:102F640012685268D2B202F07F02D2B21A707B6841
:102F7400DB8D9BB2013B9BB27A681946D185002B4D
:102F840020D17B681B687A681268D26822F020021C
:102F9400DA607B681B687A681268D26822F48072EF
:102FA400DA607B681B687A681268526922F0010251
:102FB4005A617B68202283F83A20786800F0DAFFAF
:102FC400002302E0002300E0022318461037BD4628
:102FD40080BD00BF90B585B000AF78607B681B688A
:102FE4007A681268126922F440517A68D2680A43F6
:102FF4001A617B689A687B681B691A437B685B6902
:103004001343FB607B681A687B681B68DB6823F4E6
:10301400B05323F00C03F9680B43D3607B681B683F
:103024007A681268526922F440717A6892690A4394
:103034005A617B681B68524A93424ED1FEF77AFD6F
:10304400B8607B681968BA6813469B0013449A00F9
:103054001A447B685B689B00B2FBF3F3494AA2FB0A
:1030640003235B091801BA6813469B0013449A00B2
:103074001A447B685B689B00B2FBF3F2414BA3FBF1
:1030840002435B09642404FB03F3D31A1B013233A8
:103094003C4AA2FB03235B0903F0F0031844BA681B
:1030A40013469B0013449A001A447B685B689B0098
:1030B400B2FBF3F2334BA3FB02435B09642404FB2E
:1030C40003F3D31A1B0132332E4AA2FB03235B09F9
:1030D40003F00F0303448B604DE0FEF717FDB86067
:1030E4007B681968BA6813469B0013449A001A4413
:1030F4007B685B689B00B2FBF3F3224AA2FB0323C9
:103104005B091801BA6813469B0013449A001A44D9
:103114007B685B689B00B2FBF3F21A4BA3FB024390
:103124005B09642404FB03F3D31A1B013233154AED
:10313400A2FB03235B0903F0F0031844BA681346A7
:103144009B0013449A001A447B685B689B00B2FBA3
:10315400F3F20C4BA3FB02435B09642404FB03F36B
:10316400D31A1B013233074AA2FB03235B0903F082
:103174000F0303448B6000BF1437BD4690BD00BFEE
:10318400003801401F85EB5180B500AF0121234871
:10319400FDF76CFC0346002B03D0214B01221A706F
:1031A40002E01F4B00221A7002211C48FDF75EFC4E
:1031B4000346002B03D01B4B01221A7002E0194B6B
:1031C40000221A7004211548FDF750FC0346002B19
:1031D40003D0154B01221A7002E0134B00221A701F
:1031E40008210E48FDF742FC0346002B03D00F4B89
:1031F40001221A7002E00D4B00221A7020210C48A3
:10320400FDF734FC0346002B03D00A4B01221A704D
:1032140002E0084B00221A7000BF80BD001001407C
:103224002E0100202F010020300100203101002058
:10323400000C01403201002080B483B000AF7860FC
:1032440039600D4B1B685B6A1BB21A467B681A60B7
:10325400094B1B6800225A62084B1B685B6A1BB24D
:103264001A463B681A60054B1B6800225A6200BF6D
:103274000C37BD4680BC70474801002088010020FF
:1032840080B483B000AF786039607B685A687B682B
:103294001B681A447B685A603B685A683B681B6821
:1032A4001A443B685A6000BF0C37BD4680BC704767
:1032B40080B483B000AF786039607B689A687B68BB
:1032C4001B68D21A3B689A607B68DA683B681B68A3
:1032D400396888683968C968411A01FB03F13B6899
:1032E4005B683868806800FB03F30B441A447B680E
:1032F400DA603B689A683B68DA6000BF0C37BD4609
:1033040080BC704780B485B000AFF860B9607A6063
:10331400FB68DA687B685B429A4203DA7B685A424C
:10332400FB68DA60FB68DA687B689A4202DDFB6856
:103334007A68DA60BB68DA687B685B429A4203DACF
:103344007B685A42BB68DA60BB68DA687B689A4279
:1033540002DDBB687A68DA6000BF1437BD4680BC02
:10336400704700BF80B483B000AF786039607B6879
:10337400DB68002B09DB1A4B1B6800225A63184BCD
:103384001B687A68D2689A630BE0154B1B684FF48C
:10339400E1525A63124B1B687A68D26802F5E15213
:1033A4009A633B68DB68002B09DB0D4B1B6800222A
:1033B400DA630B4B1B683A68D2681A640BE0084B5B
:1033C4001B684FF4E152DA63054B1B683A68D26814
:1033D40002F5E1521A6400BF0C37BD4680BC704749
:1033E4004802002080B586B004AF0023FB7100239F
:1033F400FB7111E0FB790C4A13444FF48072029282
:103404000122019200930123002278210748FDF74D
:103414009DFCFB790133FB71FB791A2BEAD900BFC0
:103424000837BD4680BD00BF08000020940000207E
:1034340080B586B004AF0346FB714FF480730293EA
:1034440001230193FB1D00930123002278210348EB
:10345400FDF77CFC00BF0837BD4680BD940000200A
:1034640080B586B004AF0346FB714FF480730293BA
:1034740001230193FB1D009301234022782103487B
:10348400FDF764FC00BF0837BD4680BD94000020F2
:1034940080B500AFC820FCF733FFFFF7A3FF00BFE0
:1034A40080BD00BF80B582B000AF0023FB711BE07C
:1034B400FB79503BDBB21846FFF7BAFF0020FFF759
:1034C400B7FF1020FFF7B4FF0023BB7105E0002015
:1034D400FFF7C6FFBB790133BB7197F90630002BA8
:1034E400F5DAFB790133FB71FB79072BE0D900BFD7
:1034F4000837BD4680BD00BF80B582B000AF03462B
:103504000A46FB711346BB71BB79503BDBB21846CC
:10351400FFF78EFFFB791B09DBB243F01003DBB22C
:103524001846FFF785FFFB7903F00F03DBB218465B
:10353400FFF77EFF00BF0837BD4680BD90B585B05C
:1035440000AF0446084611461A462346FB7103465B
:10355400BB710B467B7113463B710023BB73002385
:10356400FB737B79203BBB7397F90730002B04DA9C
:103574000023FB71BB790233BB713B79102B33D130
:10358400BA79FB7911461846FFF7B6FF0023FB739F
:103594000BE0BB7B1A01FB7B1344234AD35C184624
:1035A400FFF75EFFFB7B0133FB73FB7B072BF0D93B
:1035B400BB790133DAB2FB7911461846FFF79CFF59
:1035C4000023FB730CE0BB7B1A01FB7B1344083321
:1035D400154AD35C1846FFF743FFFB7B0133FB73AB
:1035E400FB7B072BEFD91BE0BA79FB791146184610
:1035F400FFF782FF0023FB730FE0BA7BF97B0B48D4
:1036040013465B0013445B0003440B441B781846C9
:10361400FFF726FFFB7B0133FB73FB7B052BECD908
:1036240000BF1437BD4690BD9C4C0008744A000886
:1036340080B584B000AF3A601A460346FB710B466E
:10364400BB7113467B710023FB7316E0FB7B3A6866
:1036540013441A787B79B979F879FFF76FFFFB790E
:103664000833FB71FB79782B04D90023FB71BB79F8
:103674000233BB71FB7B0133FB73FB7B3A6813445E
:103684001B78002BE2D100BF1037BD4680BD00BFC0
:1036940080B582B000AFFFF7FBFEFFF703FF0C23FA
:1036A400FB71FB79134A00211E20FFF7C1FFFB7950
:1036B400114A00215020FFF7BBFFFB790F4A02217A
:1036C4000120FFF7B5FFFB790D4A03210120FFF725
:1036D400AFFFFB790B4A04210120FFF7A9FFFB7917
:1036E400094A05210120FFF7A3FF00BF0837BD46A3
:1036F40080BD00BF544A00085C4A0008644A0008C0
:10370400684A00086C4A0008704A000880B487B010
:1037140000AFF860B9601346FB7100237B6107E0DA
:103724007B69BA68134430221A707B6901337B6168
:10373400FA797B699A42F3DCFB68002B03DBBB68F4
:103744002B221A7005E0BB682D221A70FB685B42BD
:10375400FB60FB79013BFB71FB79BA6813440022DF
:103764001A701DE0FB79013BFB71FB79BA68D01834
:10377400FA680F4B83FB02139910D317C91A0B462F
:103784009B000B445B00D11ACBB23033DBB2037025
:10379400FB68074A82FB03129210DB17D31AFB6003
:1037A400FB68002BDED100BF1C37BD4680BC7047D0
:1037B4006766666690B585B000AF3C4684E80F0046
:1037C400BB6806224B491846FFF7A0FFBB6A0622D6
:1037D40049491846FFF79AFFFB68062247491846ED
:1037E400FFF794FFFB6A062245491846FFF78EFF50
:1037F4003B68062243491846FFF788FF3B6A0622C6
:1038040041491846FFF782FF7B6806223F49184664
:10381400FFF77CFF7B6A06223D491846FFF776FFD7
:1038240097F8303006223B491846FFF76FFF3A4BB2
:1038340018783A4B19783A4B1B782E4AFFF7F8FE62
:10384400354B1878354B1B780133D9B2344B1B7880
:103854002C4AFFF7EDFE304B1878304B1B780233BF
:10386400D9B22F4B1B78254AFFF7E2FE2D4B18786F
:103874002D4B19782A4B1B781F4AFFF7D9FE294B89
:103884001878294B1B780133D9B2254B1B781E4A73
:10389400FFF7CEFE234B1878234B1B780233D9B2A3
:1038A4001F4B1B78164AFFF7C3FE1B4B18781B4BA4
:1038B4001B780333D9B21A4B1B78144AFFF7B8FEAE
:1038C400184B1878184B1B780333D9B2144B1B7858
:1038D4000F4AFFF7ADFE104B1878134B1B780433D7
:1038E400D9B20F4B1B780B4AFFF7A2FE00BF143767
:1038F400BD4690BD4C000020540000205C00002018
:10390400640000206C000020740000207C00002073
:10391400840000208C0000202300002024000020CC
:1039240025000020260000202700002080B588B054
:1039340000AF07F1100300221A605A609A60DA603F
:10394400354A354B9B6943F020039361324B9B69A5
:1039540003F02003FB60FB682F4A2F4B9B6943F065
:10396400100393612C4B9B6903F01003BB60BB688D
:10397400294A294B9B6943F004039361264B9B69B5
:1039840003F004037B607B68234A234B9B6943F069
:1039940008039361204B9B6903F008033B603B6879
:1039A400002204211D48FDF779F80F233B61002311
:1039B4007B610023BB6107F1100319461848FCF72B
:1039C400EBFE4FF400633B6100237B610023BB618A
:1039D40007F1100319461348FCF7DEFE04233B618C
:1039E40001237B610023BB610223FB6107F1100308
:1039F40019460A48FCF7D0FE20233B6100237B6173
:103A04000023BB6107F1100319460748FCF7C4FE05
:103A140000BF2037BD4680BD0010024000140140A5
:103A24000010014000080140000C014080B500AFC7
:103A3400124B134A1A60114B124A5A600F4B002260
:103A44009A600E4B0022DA600C4B4FF480421A61EC
:103A54000A4B00225A61094B00229A61074B00224B
:103A6400DA61064B00221A620448FDF747F8034660
:103A7400002B01D000F01CFB00BF80BD940000208F
:103A840000580040A086010080B588B000AF78607F
:103A940007F1100300221A605A609A60DA607B68AA
:103AA4001B68164A934224D1154A154B9B6943F06F
:103AB40008039361124B9B6903F00803FB60FB68E6
:103AC4004FF440633B6112237B610323FB6107F1E5
:103AD400100319460B48FCF75FFE094A084BDB69E3
:103AE40043F48003D361064BDB6903F48003BB60BA
:103AF400BB6800BF2037BD4680BD00BF00580040F2
:103B040000100240000C014080B400AF1A4B0022A8
:103B14001A60194B0022DA60174B00225A60164BC8
:103B240000229A60154B00221A60144B0022DA60BE
:103B3400124B00225A60114B00229A60104B4FF432
:103B440048721A600E4B64225A600D4B00229A6030
:103B54000B4B0022DA600B4B4FF448721A60094B8E
:103B640064225A60074B00229A60064B0022DA60F6
:103B740000BFBD4680BC7047EC000020FC00002064
:103B84000C0100201C01002080B400AF0F4B1B78F7
:103B94005A1CD1B20D4A1170642B13D10B4B002265
:103BA4001A700B4B1A880B4B1B889A4206D10A4B8E
:103BB40000229A60094B00229A6003E0054B1A88A0
:103BC400034B1A8000BFBD4680BC704738010020FB
:103BD4003601002034010020EC000020FC0000200D
:103BE40080B400AF574B1B78312B0AD1564B1B784E
:103BF400312B14D8544B1B780133DAB2524B1A7060
:103C04000DE0504B1B78322B09D14F4B1B78002B06
:103C140005D04D4B1B78013BDAB24B4B1A70494B24
:103C24005B78302B06D1494B00229A60484B002226
:103C34009A6082E0434B5B78312B0AD1424B1B786C
:103C44001A46424B9A60404B1B785B42404A936051
:103C540073E03C4B5B78322B0ED13B4B1B781A46FE
:103C64003A4B9A60384B1B785B42DA0F13445B1073
:103C74001A46374B9A6060E0324B5B78332B0AD19B
:103C8400314B1B781A46314B9A602F4B1B781A46DE
:103C94002F4B9A6051E02B4B5B78342B0CD12A4B81
:103CA4001B785B42294A9360274B1B785B08DBB285
:103CB4001A46274B9A6040E0224B5B78352B0AD199
:103CC400214B1B785B42214A93601F4B1B781A4699
:103CD4001F4B9A6031E01B4B5B78362B0ED11A4B8D
:103CE4001B785B42DA0F13445B101A46174B9A6039
:103CF400154B1B781A46164B9A601EE0114B5B78E5
:103D0400372B0AD1104B1B785B42104A93600E4B41
:103D14001B785B420E4A93600FE00A4B5B78382BAA
:103D24000BD1094B1B785B08DBB21A46074B9A6030
:103D3400054B1B785B42064A936000BFBD4680BCBE
:103D4400704700BF2C01002039010020EC00002046
:103D5400FC00002080B500AFFCF770FAFFF7D4FE3A
:103D640000F074F8FFF7E2FD00F00CFBFFF75EFED5
:103D740000F01CFD00F044FD00F05CFA00F0AEFA27
:103D840000F06CFB00F034FBFFF782FC04212248B6
:103D9400FEF74AF804212148FEF746F8002120489E
:103DA400FDF776FF04211E48FDF772FF08211C4829
:103DB400FDF76EFF0C211A48FDF76AFF012219492D
:103DC4001948FEF739FE012218491948FEF734FE56
:103DD4001848FDF70DFF1848FDF70AFF4FF400617E
:103DE4001648FCF743FE0346002BF7D100BF4FF4FF
:103DF40000611248FCF73AFE0346002BF7D0042179
:103E04000F48FCF763FE0F4B0A229A600E4B6FF0CB
:103E140009029A60E2E700BF4801002088010020FF
:103E240048020020E800002088020020E900002069
:103E3400C8020020C8010020080200200008014038
:103E440000140140EC000020FC00002080B590B07C
:103E540000AF07F1180328220021184600F0DAFD0C
:103E64003B1D00221A605A609A60DA601A610123CD
:103E7400BB614FF48033FB6100233B620123BB62CF
:103E840002237B634FF48033BB634FF4E013FB6383
:103E940007F118031846FDF763FA0346002B01D017
:103EA40000F006F90F237B600223BB600023FB6054
:103EB4004FF480633B6100237B613B1D0221184664
:103EC400FDF7CCFC0346002B01D000F0F1F800BF55
:103ED4004037BD4680BD00BFB0B588B006AF78603E
:103EE4007B681A681C4B1B689A421DD1FFF74CFE75
:103EF400FFF74AF919491A48FFF79EF91749184874
:103F0400FFF7BEF917491648FFF7D2F916491348C7
:103F1400FFF7CEF941F6583210491148FFF7F2F98C
:103F24000E490F48FFF71EFA7B681A680F4B1B688F
:103F34009A420CD10E4B1B78094C0493074B6D46E7
:103F44000FCB85E80F0094E80F00FFF733FC00BFA8
:103F54000837BD46B0BD00BFC8010020FC000020EA
:103F6400EC0000200C0100201C01002008020020AD
:103F74003901002080B582B000AF78607B68424A86
:103F840093420ED104214148FCF7A0FD6423012291
:103F94003F493D48FEF7B8FC01223D493A48FEF747
:103FA4004BFD7B683B4A93426AD1642301223A4920
:103FB4003848FEF7A9FC384B1B785B2B02D1374BF2
:103FC40001221A70344B1B785D2B02D1334B022231
:103FD4001A70324B1B78012B23D1314B1B785A1C9E
:103FE400D1B22F4A11701A462B4B19782D4B995484
:103FF4002B4B1B781A462B4B9B5C5B2B05D1284B18
:104004001B78013BDAB2264B1A70254B1B780A2B1E
:1040140007D10A220021234800F0FCFC1F4B002298
:104024001A701E4B1B78022B25D104211748FCF76C
:104034004DFD1C4B5A781C4B1A701A4B9A781A4B2C
:104044005A701A4B1B885A1C91B2184A11804EF6AA
:104054006022934202D1154B00221A80FFF7C0FD63
:104064000E4B00221A700E4B00221A700A220021F5
:104074000C4800F0CFFC012207490648FEF7DCFC9F
:1040840000BF0837BD4680BD8802002000140140EF
:10409400E8000020C8020020E90000203A010020C6
:1040A4003B0100203C0100202C01002034010020B1
:1040B40080B400AF00BFBD4680BC704780B485B0FB
:1040C40000AF154A144B9B6943F001039361124BF3
:1040D4009B6903F00103BB60BB680F4A0E4BDB69AD
:1040E40043F08053D3610C4BDB6903F080537B6056
:1040F4007B680A4B5B68FB60FB6823F0E063FB6052
:10410400FB6843F00073FB60044AFB68536000BF24
:104114001437BD4680BC70470010024000000140C7
:1041240080B400AF00BFBD4680BC704780B400AF10
:10413400FEE700BF80B400AFFEE700BF80B400AF6D
:10414400FEE700BF80B400AFFEE700BF80B400AF5D
:1041540000BFBD4680BC704780B400AF00BFBD4601
:1041640080BC704780B400AF00BFBD4680BC7047C0
:1041740080B500AFFCF7A8F800BF80BD80B500AFE4
:104184000248FEF7ADFC00BF80BD00BF88020020DE
:1041940080B500AF0248FEF7A3FC00BF80BD00BF9E
:1041A400C802002080B500AF0248FDF775FE00BFCD
:1041B40080BD00BFC801002080B500AF0248FDF7F4
:1041C4006BFE00BF80BD00BF0802002080B400AFBA
:1041D400154A154B1B6843F0010313601249124B37
:1041E4005A68124B13404B600F4A0F4B1B6823F065
:1041F400847323F4803313600B4A0B4B1B6823F442
:1042040080231360084A084B5B6823F4FE03536061
:10421400054B4FF41F029A60054B4FF000629A6001
:1042240000BFBD4680BC7047001002400000FFF88C
:1042340000ED00E080B58CB000AF07F10C03242240
:104244000021184600F0E6FB3B1D00221A605A606C
:10425400204B214A1A601F4B00225A601D4B00223A
:104264009A601C4B4FF6FF72DA601A4B00221A61F7
:10427400184B00229A610323FB6000233B61012356
:104284007B610023BB610023FB6100233B620123AC
:104294007B620023BB620023FB6207F10C03194617
:1042A4000C48FDF733FD0346002B01D0FFF700FF58
:1042B40000237B600023BB603B1D19460548FEF7C5
:1042C4002BFA0346002B01D0FFF7F2FE00BF303774
:1042D400BD4680BD480100200004004080B58CB07C
:1042E40000AF07F10C0324220021184600F092FBD2
:1042F4003B1D00221A605A60204B214A1A601F4B52
:1043040000225A601D4B00229A601C4B4FF6FF722C
:10431400DA601A4B00221A61184B00229A610323B7
:10432400FB6000233B6101237B610023BB6100230D
:10433400FB6100233B6201237B620023BB620023F9
:10434400FB6207F10C0319460C48FDF7DFFC03463A
:10435400002B01D0FFF7ACFE00237B600023BB6081
:104364003B1D19460548FEF7D7F90346002B01D03B
:10437400FFF79EFE00BF3037BD4680BD8801002098
:104384000008004080B582B000AF3B4600221A60AE
:104394005A60154B154A1A60134B41F61F425A6076
:1043A400114B00229A60104B6322DA600E4B0022FC
:1043B4009A610D48FDF7F0FB0346002B01D0FFF78F
:1043C40077FE00233B6000237B603B46194606488A
:1043D400FEF7A2F90346002B01D0FFF769FE00BFE8
:1043E4000837BD4680BD00BFC80100200010004052
:1043F40080B582B000AF3B4600221A605A60154B6C
:10440400154A1A60134B41F61F425A60114B0022A1
:104414009A60104B40F6B732DA600E4B00229A6174
:104424000C48FDF7B9FB0346002B01D0FFF740FE13
:1044340000233B6000237B603B4619460548FEF79A
:104444006BF90346002B01D0FFF732FE00BF08379B
:10445400BD4680BD080200200014004080B592B023
:1044640000AF07F1400300221A605A6007F12403E9
:1044740000221A605A609A60DA601A615A619A617D
:104484003B1D20220021184600F0C4FA454B464A41
:104494001A60444B00225A60424B00229A60414BFE
:1044A40041F61F42DA603F4B00221A613D4B002265
:1044B4005A613C4B00229A613A48FDF7BDFB034622
:1044C400002B01D0FFF7F4FD00233B6400237B6441
:1044D40007F1400319463348FEF71EF90346002B43
:1044E40001D0FFF7E5FD60237B620023BB6200235C
:1044F400FB6200233B6300237B630023BB63002335
:10450400FB6307F12403002219462648FDF7CCFD7E
:104514000346002B01D0FFF7CBFD07F1240304224F
:1045240019462048FDF7C0FD0346002B01D0FFF7D4
:10453400BFFD07F12403082219461A48FDF7B4FD0C
:104544000346002B01D0FFF7B3FD07F124030C222F
:1045540019461448FDF7A8FD0346002B01D0FFF7C8
:10456400A7FD00237B600023BB600023FB600023C6
:104574003B6100237B614FF40053BB6100233B622A
:104584003B1D19460748FEF70BF90346002B01D0E3
:10459400FFF78EFD034800F0D5F800BF4837BD464D
:1045A40080BD00BF480200200034014080B58AB0BD
:1045B40000AF786007F1180300221A605A609A600D
:1045C400DA607B681B682A4A934224D1294A294B22
:1045D400DB6943F00203D361264BDB6903F002037A
:1045E4007B617B69234A234B9B6943F004039361FA
:1045F400204B9B6903F004033B613B69C023BB610F
:104604000023FB6100233B6207F1180319461A4893
:10461400FCF7C2F828E07B681B68184A934223D150
:10462400144A144BDB6943F00403D361114BDB6977
:1046340003F00403FB60FB680E4A0E4B9B6943F0D6
:10464400080393610B4B9B6903F00803BB60BB68D1
:10465400C023BB610023FB6100233B6207F1180305
:1046640019460748FCF798F800BF2837BD4680BDB7
:10467400000400400010024000080140000800400F
:10468400000C014080B584B000AF78607B681B6883
:104694001A4A934214D11A4A194BDB6943F01003A6
:1046A400D361174BDB6903F01003FB60FB68002246
:1046B40000213620FBF71CFF3620FBF735FF18E0FE
:1046C4007B681B680F4A934213D10D4A0C4BDB697C
:1046D40043F02003D3610A4BDB6903F02003BB6082
:1046E400BB68002201213720FBF702FF3720FBF7CC
:1046F4001BFF00BF1037BD4680BD00BF0010004047
:10470400001002400014004080B485B000AF78600F
:104714007B681B68094A93420BD1094A084B9B6981
:1047240043F400539361064B9B6903F40053FB600D
:10473400FB6800BF1437BD4680BC7047003401409D
:104744000010024080B588B000AF786007F1100314
:1047540000221A605A609A60DA607B681B68104A0B
:10476400934218D10F4A0F4B9B6943F01003936196
:104774000C4B9B6903F01003FB60FB684FF47073F0
:104784003B6102237B610223FB6107F1100319469D
:104794000548FCF701F800BF2037BD4680BD00BFC7
:1047A40000340140001002400010014080B500AF09
:1047B400114B124A1A60104B4FF4E1325A600E4BFF
:1047C40000229A600C4B0022DA600B4B00221A6123
:1047D400094B0C225A61084B00229A61064B0022B5
:1047E400DA610548FEF742F80346002B01D0FFF7D3
:1047F4005FFC00BF80BD00BF88020020003801407C
:1048040080B500AF114B124A1A60104B4FF4E132DD
:104814005A600E4B00229A600C4B0022DA600B4B5C
:1048240000221A61094B0C225A61084B00229A613A
:10483400064B0022DA610548FEF718F80346002B00
:1048440001D0FFF735FC00BF80BD00BFC8020020C7
:104854000044004080B58AB000AF786007F11803C7
:1048640000221A605A609A60DA607B681B683F4ACB
:1048740093423AD13E4A3E4B9B6943F48043936151
:104884003B4B9B6903F480437B617B69384A384B1B
:104894009B6943F004039361354B9B6903F0040364
:1048A4003B613B694FF40073BB610223FB6103234B
:1048B4007B6207F1180319462E48FBF76DFF4FF48E
:1048C4008063BB610023FB6100233B6207F1180393
:1048D40019462848FBF760FF002202212520FBF738
:1048E40007FE2520FBF720FE3CE07B681B68224A7C
:1048F400934237D11E4A1E4BDB6943F40033D36124
:104904001B4BDB6903F40033FB60FB68184A184B4C
:104914009B6943F004039361154B9B6903F0040303
:10492400BB60BB680423BB610223FB6103237B627E
:1049340007F1180319460F48FBF72EFF0823BB6144
:104944000023FB6100233B6207F118031946094861
:10495400FBF722FF002202212620FBF7C9FD2620B7
:10496400FBF7E2FD00BF2837BD4680BD003801409B
:10497400001002400008014000440040002103E010
:104984000B4B5B58435004310A480B4B42189A4274
:10499400F6D30A4A02E0002342F8043B084B9A4249
:1049A400F9D3FFF713FC00F00FF8FFF7D3F97047C2
:1049B4009C520008000000202C0000202C00002045
:1049C40008030020FEE700000E4B70B51E460E4C97
:1049D4000025E41AA410A54204D056F825309847BF
:1049E4000135F8E700F01EF8084B094C1E46E41A9E
:1049F400A4100025A54204D056F825309847013567
:104A0400F8E770BD945200089452000894520008CC
:104A14009852000803460244934202D003F8011B53
:104A2400FAE77047F8B500BFF8BC08BC9E4670476B
:0C4A3400F8B500BFF8BC08BC9E467047F7
:104A400002030405060708090A0B0C0D0E0F1010CF
:104A5000010200006C6566740000000072696768FE
:104A60007400000074677400656E630070776D00F9
:104A7000616464000000000000000000002F0000DE
:104A800000000700070000147F147F1400242A7F11
:104A90002A12006264081323003649552250000090
:104AA0000503000000001C224100000041221C0000
:104AB0000014083E08140008083E0808000000A082
:104AC000600000080808080800006060000000207E
:104AD00010080402003E5149453E0000427F40005C
:104AE000004261514946002141454B3100181412E2
:104AF0007F10002745454539003C4A4949300001AF
:104B00007109050300364949493600064949291EFD
:104B1000000036360000000056360000000814225F
:104B2000410000141414141400004122140800025F
:104B30000151090600324959513E007C1211127C84
:104B4000007F49494936003E41414122007F4141B1
:104B5000221C007F49494941007F09090901003EA3
:104B60004149497A007F0808087F0000417F4100E1
:104B7000002040413F01007F08142241007F404057
:104B80004040007F020C027F007F0408107F003E3F
:104B90004141413E007F09090906003E4151215E25
:104BA000007F091929460046494949310001017F22
:104BB0000101003F4040403F001F2040201F003FB8
:104BC0004038403F0063140814630007087008076A
:104BD00000615149454300007F41410000552A557D
:104BE0002A55000041417F000004020102040040F8
:104BF000404040400000010204000020545454781A
:104C0000007F484444380038444444200038444439
:104C1000487F00385454541800087E0901020018D7
:104C2000A4A4A47C007F080404780000447D400014
:104C3000004080847D00007F102844000000417FF8
:104C40004000007C04180478007C080404780038D4
:104C50004444443800FC242424180018242418FC5C
:104C6000007C0804040800485454542000043F44C5
:104C70004020003C4040207C001C2040201C003C88
:104C80004030403C004428102844001CA0A0A07CD8
:104C9000004464544C441414141414140000000010
:104CA000000000000000000000000000000000F80C
:104CB00000000000000000333000000000100C066F
:104CC000100C0600000000000000000040C078400A
:104CD000C0784000043F04043F040400007088FCD6
:104CE00008300000001820FF211E0000F008F0002E
:104CF000E018000000211C031E211E0000F008889F
:104D0000700000001E2123241927211010160E0008
:104D1000000000000000000000000000000000E0B3
:104D200018040200000000071820400000020418C8
:104D3000E00000000040201807000000404080F024
:104D4000804040000202010F01020200000000F05A
:104D5000000000000101011F01010100000000002E
:104D60000000000080B070000000000000000000A3
:104D7000000000000001010101010101000000002C
:104D800000000000003030000000000000000000C3
:104D900080601804006018060100000000E01008A0
:104DA0000810E000000F102020100F00001010F875
:104DB000000000000020203F2020000000700808B4
:104DC0000888700000302824222130000030088834
:104DD000884830000018202020110E000000C0205C
:104DE00010F8000000070424243F240000F808887D
:104DF000880808000019212020110E0000E010880A
:104E000088180000000F112020110E00003808083B
:104E1000C83808000000003F00000000007088084B
:104E200008887000001C222121221C0000E01008CC
:104E30000810E0000000312222110F00000000C025
:104E4000C0000000000000303000000000000080C2
:104E500000000000000080600000000000008040B2
:104E600020100800000102040810200040404040CB
:104E7000404040000404040404040400000810201E
:104E80004080000000201008040201000070480863
:104E90000808F0000000003036010000C030C828CB
:104EA000E810E0000718272423140B000000C03886
:104EB000E0000000203C23020227382008F8888800
:104EC00088700000203F202020110E00C03008080C
:104ED00008083800071820202010080008F80808E3
:104EE0000810E000203F202020100F0008F88888DC
:104EF000E8081000203F20202320180008F88888A8
:104F0000E8081000203F200003000000C03008081F
:104F10000838000007182020221E020008F80800A8
:104F20000008F808203F210101213F20000808F86F
:104F3000080800000020203F202000000000080892
:104F4000F8080800C08080807F00000008F888C052
:104F500028180800203F20012638200008F8080003
:104F600000000000203F20202020300008F8F8003A
:104F7000F8F80800203F003F003F200008F830C04C
:104F80000008F808203F200007183F00E01008083C
:104F90000810E0000F10202020100F0008F808086B
:104FA0000808F000203F210101010000E01008087E
:104FB0000810E0000F18242438504F0008F88888A3
:104FC00088887000203F2000030C30200070880883
:104FD000080838000038202121221C00180808F891
:104FE000080818000000203F2000000008F8080012
:104FF0000008F808001F202020201F0008788800E3
:1050000000C83808000007380E010000F80800F852
:105010000008F800033C0700073C030008186880FC
:105020008068180820302C03032C30200838C80072
:10503000C83808000000203F2000000010080808C1
:10504000C83808002038262120201800000000FE63
:10505000020202000000007F40404000000C30C00F
:1050600000000000000000010638C000000202023B
:10507000FE000000004040407F00000000000402ED
:105080000202040000000000000000000000000018
:105090000000000080808080808080800002020408
:1050A0000000000000000000000000000000808000
:1050B000808000000019242222223F2008F800806E
:1050C00080000000003F112020110E000000008031
:1050D00080800000000E11202020110000000080C0
:1050E0008088F800000E112020103F2000008080F2
:1050F00080800000001F222222221300008080F006
:10510000888888180020203F202000000000808030
:1051100080808000006B94949493600008F8008075
:1051200080800000203F210000203F2000809898D0
:10513000000000000020203F202000000000008030
:105140009898000000C08080807F000008F8000070
:1051500080808000203F24022D302000000808F8C5
:10516000000000000020203F202000008080808080
:1051700080808000203F20003F20003F8080008012
:1051800080800000203F210000203F200000808020
:1051900080800000001F202020201F0080800080D1
:1051A0008000000080FFA12020110E000000008080
:1051B00080808000000E112020A0FF808080800071
:1051C0008080800020203F2120000100000080809E
:1051D000808080000033242424241900008080E093
:1051E000808000000000001F202000008080000060
:1051F00000808000001F202020103F208080800041
:105200000080808000010E30080601008080008050
:10521000008080800F300C030C300F000080800075
:10522000808080000020312E0E31200080808000A0
:105230000080808080818E70180601000080808050
:10524000808080000021302C2221300000000000EE
:10525000807C020200000000003F40400002027C0F
:10526000800000000040403F0000000000000000FF
:10527000FF00000000000000FF0000000000000030
:1052800000000000010203040607080900000000F6
:045290000102030410
:045294000902000803
:04529800E501000824
:10529C001000000001000000AE001040B081FFA122
:1052AC00A6A83FC8D300D580D805D9F1DA12D830DA
:0C52BC008D14AF1E020150020024F4000B
:040000050800498125
:00000001FF
